{
	"contracts/bank_account/BankAccount.sol": {
		"MyBank": {
			"abi": [
				{
					"inputs": [],
					"stateMutability": "nonpayable",
					"type": "constructor"
				},
				{
					"anonymous": false,
					"inputs": [
						{
							"indexed": false,
							"internalType": "address",
							"name": "accountHoder",
							"type": "address"
						},
						{
							"indexed": false,
							"internalType": "uint256",
							"name": "amount",
							"type": "uint256"
						}
					],
					"name": "LogDepositeMade",
					"type": "event"
				},
				{
					"inputs": [],
					"name": "deposite",
					"outputs": [
						{
							"internalType": "uint256",
							"name": "",
							"type": "uint256"
						}
					],
					"stateMutability": "payable",
					"type": "function"
				},
				{
					"inputs": [],
					"name": "owner",
					"outputs": [
						{
							"internalType": "address",
							"name": "",
							"type": "address"
						}
					],
					"stateMutability": "view",
					"type": "function"
				},
				{
					"inputs": [],
					"name": "viewBalance",
					"outputs": [
						{
							"internalType": "uint256",
							"name": "",
							"type": "uint256"
						}
					],
					"stateMutability": "view",
					"type": "function"
				},
				{
					"inputs": [
						{
							"internalType": "uint256",
							"name": "withdrawAmount",
							"type": "uint256"
						}
					],
					"name": "withdraw",
					"outputs": [
						{
							"internalType": "uint256",
							"name": "",
							"type": "uint256"
						}
					],
					"stateMutability": "nonpayable",
					"type": "function"
				}
			],
			"devdoc": {
				"kind": "dev",
				"methods": {},
				"version": 1
			},
			"evm": {
				"assembly": "    /* \"contracts/bank_account/BankAccount.sol\":64:1271  contract MyBank... */\n  mstore(0x40, 0x80)\n    /* \"contracts/bank_account/BankAccount.sol\":224:335  constructor () public... */\n  callvalue\n  dup1\n  iszero\n  tag_1\n  jumpi\n  0x00\n  dup1\n  revert\ntag_1:\n  pop\n    /* \"contracts/bank_account/BankAccount.sol\":268:278  msg.sender */\n  caller\n    /* \"contracts/bank_account/BankAccount.sol\":262:267  owner */\n  0x01\n  0x00\n    /* \"contracts/bank_account/BankAccount.sol\":262:278  owner=msg.sender */\n  0x0100\n  exp\n  dup2\n  sload\n  dup2\n  0xffffffffffffffffffffffffffffffffffffffff\n  mul\n  not\n  and\n  swap1\n  dup4\n  0xffffffffffffffffffffffffffffffffffffffff\n  and\n  mul\n  or\n  swap1\n  sstore\n  pop\n    /* \"contracts/bank_account/BankAccount.sol\":294:327  LogDepositeMade(msg.sender, 1000) */\n  0x3e6eab4ac1d5e706b8c4c295ec0fd5a4ab9f90e15014250d73f946d7625ef64e\n    /* \"contracts/bank_account/BankAccount.sol\":310:320  msg.sender */\n  caller\n    /* \"contracts/bank_account/BankAccount.sol\":322:326  1000 */\n  0x03e8\n    /* \"contracts/bank_account/BankAccount.sol\":294:327  LogDepositeMade(msg.sender, 1000) */\n  mload(0x40)\n  dup1\n  dup4\n  0xffffffffffffffffffffffffffffffffffffffff\n  and\n  dup2\n  mstore\n  0x20\n  add\n  dup3\n  dup2\n  mstore\n  0x20\n  add\n  swap3\n  pop\n  pop\n  pop\n  mload(0x40)\n  dup1\n  swap2\n  sub\n  swap1\n  log1\n    /* \"contracts/bank_account/BankAccount.sol\":64:1271  contract MyBank... */\n  dataSize(sub_0)\n  dup1\n  dataOffset(sub_0)\n  0x00\n  codecopy\n  0x00\n  return\nstop\n\nsub_0: assembly {\n        /* \"contracts/bank_account/BankAccount.sol\":64:1271  contract MyBank... */\n      mstore(0x40, 0x80)\n      jumpi(tag_1, lt(calldatasize, 0x04))\n      shr(0xe0, calldataload(0x00))\n      dup1\n      0x2e1a7d4d\n      eq\n      tag_2\n      jumpi\n      dup1\n      0x3ff1e05b\n      eq\n      tag_3\n      jumpi\n      dup1\n      0x8da5cb5b\n      eq\n      tag_4\n      jumpi\n      dup1\n      0xa50ec326\n      eq\n      tag_5\n      jumpi\n    tag_1:\n      0x00\n      dup1\n      revert\n        /* \"contracts/bank_account/BankAccount.sol\":669:1144  function withdraw (uint withdrawAmount) public  returns (uint)... */\n    tag_2:\n      callvalue\n      dup1\n      iszero\n      tag_6\n      jumpi\n      0x00\n      dup1\n      revert\n    tag_6:\n      pop\n      tag_7\n      0x04\n      dup1\n      calldatasize\n      sub\n      0x20\n      dup2\n      lt\n      iszero\n      tag_8\n      jumpi\n      0x00\n      dup1\n      revert\n    tag_8:\n      dup2\n      add\n      swap1\n      dup1\n      dup1\n      calldataload\n      swap1\n      0x20\n      add\n      swap1\n      swap3\n      swap2\n      swap1\n      pop\n      pop\n      pop\n      tag_9\n      jump\t// in\n    tag_7:\n      mload(0x40)\n      dup1\n      dup3\n      dup2\n      mstore\n      0x20\n      add\n      swap2\n      pop\n      pop\n      mload(0x40)\n      dup1\n      swap2\n      sub\n      swap1\n      return\n        /* \"contracts/bank_account/BankAccount.sol\":1154:1265  function viewBalance() public view returns (uint)... */\n    tag_3:\n      callvalue\n      dup1\n      iszero\n      tag_10\n      jumpi\n      0x00\n      dup1\n      revert\n    tag_10:\n      pop\n      tag_11\n      tag_12\n      jump\t// in\n    tag_11:\n      mload(0x40)\n      dup1\n      dup3\n      dup2\n      mstore\n      0x20\n      add\n      swap2\n      pop\n      pop\n      mload(0x40)\n      dup1\n      swap2\n      sub\n      swap1\n      return\n        /* \"contracts/bank_account/BankAccount.sol\":134:154  address public owner */\n    tag_4:\n      callvalue\n      dup1\n      iszero\n      tag_13\n      jumpi\n      0x00\n      dup1\n      revert\n    tag_13:\n      pop\n      tag_14\n      tag_15\n      jump\t// in\n    tag_14:\n      mload(0x40)\n      dup1\n      dup3\n      0xffffffffffffffffffffffffffffffffffffffff\n      and\n      dup2\n      mstore\n      0x20\n      add\n      swap2\n      pop\n      pop\n      mload(0x40)\n      dup1\n      swap2\n      sub\n      swap1\n      return\n        /* \"contracts/bank_account/BankAccount.sol\":345:658  function deposite() public payable  returns (uint)... */\n    tag_5:\n      tag_16\n      tag_17\n      jump\t// in\n    tag_16:\n      mload(0x40)\n      dup1\n      dup3\n      dup2\n      mstore\n      0x20\n      add\n      swap2\n      pop\n      pop\n      mload(0x40)\n      dup1\n      swap2\n      sub\n      swap1\n      return\n        /* \"contracts/bank_account/BankAccount.sol\":669:1144  function withdraw (uint withdrawAmount) public  returns (uint)... */\n    tag_9:\n        /* \"contracts/bank_account/BankAccount.sol\":726:730  uint */\n      0x00\n        /* \"contracts/bank_account/BankAccount.sol\":793:807  withdrawAmount */\n      dup2\n        /* \"contracts/bank_account/BankAccount.sol\":768:777  _balances */\n      0x00\n        /* \"contracts/bank_account/BankAccount.sol\":768:789  _balances[msg.sender] */\n      dup1\n        /* \"contracts/bank_account/BankAccount.sol\":778:788  msg.sender */\n      caller\n        /* \"contracts/bank_account/BankAccount.sol\":768:789  _balances[msg.sender] */\n      0xffffffffffffffffffffffffffffffffffffffff\n      and\n      0xffffffffffffffffffffffffffffffffffffffff\n      and\n      dup2\n      mstore\n      0x20\n      add\n      swap1\n      dup2\n      mstore\n      0x20\n      add\n      0x00\n      keccak256\n      sload\n        /* \"contracts/bank_account/BankAccount.sol\":768:807  _balances[msg.sender] >= withdrawAmount */\n      lt\n      iszero\n        /* \"contracts/bank_account/BankAccount.sol\":759:808  require (_balances[msg.sender] >= withdrawAmount) */\n      tag_19\n      jumpi\n      0x00\n      dup1\n      revert\n    tag_19:\n        /* \"contracts/bank_account/BankAccount.sol\":854:855  0 */\n      0x00\n        /* \"contracts/bank_account/BankAccount.sol\":834:856  msg.sender!=address(0) */\n      0xffffffffffffffffffffffffffffffffffffffff\n      and\n        /* \"contracts/bank_account/BankAccount.sol\":834:844  msg.sender */\n      caller\n        /* \"contracts/bank_account/BankAccount.sol\":834:856  msg.sender!=address(0) */\n      0xffffffffffffffffffffffffffffffffffffffff\n      and\n      eq\n      iszero\n        /* \"contracts/bank_account/BankAccount.sol\":826:857  require(msg.sender!=address(0)) */\n      tag_20\n      jumpi\n      0x00\n      dup1\n      revert\n    tag_20:\n        /* \"contracts/bank_account/BankAccount.sol\":908:909  0 */\n      0x00\n        /* \"contracts/bank_account/BankAccount.sol\":884:893  _balances */\n      dup1\n        /* \"contracts/bank_account/BankAccount.sol\":884:905  _balances[msg.sender] */\n      0x00\n        /* \"contracts/bank_account/BankAccount.sol\":894:904  msg.sender */\n      caller\n        /* \"contracts/bank_account/BankAccount.sol\":884:905  _balances[msg.sender] */\n      0xffffffffffffffffffffffffffffffffffffffff\n      and\n      0xffffffffffffffffffffffffffffffffffffffff\n      and\n      dup2\n      mstore\n      0x20\n      add\n      swap1\n      dup2\n      mstore\n      0x20\n      add\n      0x00\n      keccak256\n      sload\n        /* \"contracts/bank_account/BankAccount.sol\":884:909  _balances[msg.sender] > 0 */\n      gt\n        /* \"contracts/bank_account/BankAccount.sol\":875:910  require (_balances[msg.sender] > 0) */\n      tag_21\n      jumpi\n      0x00\n      dup1\n      revert\n    tag_21:\n        /* \"contracts/bank_account/BankAccount.sol\":952:966  withdrawAmount */\n      dup2\n        /* \"contracts/bank_account/BankAccount.sol\":928:937  _balances */\n      0x00\n        /* \"contracts/bank_account/BankAccount.sol\":928:949  _balances[msg.sender] */\n      dup1\n        /* \"contracts/bank_account/BankAccount.sol\":938:948  msg.sender */\n      caller\n        /* \"contracts/bank_account/BankAccount.sol\":928:949  _balances[msg.sender] */\n      0xffffffffffffffffffffffffffffffffffffffff\n      and\n      0xffffffffffffffffffffffffffffffffffffffff\n      and\n      dup2\n      mstore\n      0x20\n      add\n      swap1\n      dup2\n      mstore\n      0x20\n      add\n      0x00\n      keccak256\n      0x00\n        /* \"contracts/bank_account/BankAccount.sol\":928:966  _balances[msg.sender]-= withdrawAmount */\n      dup3\n      dup3\n      sload\n      sub\n      swap3\n      pop\n      pop\n      dup2\n      swap1\n      sstore\n      pop\n        /* \"contracts/bank_account/BankAccount.sol\":984:994  msg.sender */\n      caller\n        /* \"contracts/bank_account/BankAccount.sol\":984:1003  msg.sender.transfer */\n      0xffffffffffffffffffffffffffffffffffffffff\n      and\n        /* \"contracts/bank_account/BankAccount.sol\":984:1019  msg.sender.transfer(withdrawAmount) */\n      0x08fc\n        /* \"contracts/bank_account/BankAccount.sol\":1004:1018  withdrawAmount */\n      dup4\n        /* \"contracts/bank_account/BankAccount.sol\":984:1019  msg.sender.transfer(withdrawAmount) */\n      swap1\n      dup2\n      iszero\n      mul\n      swap1\n      mload(0x40)\n      0x00\n      mload(0x40)\n      dup1\n      dup4\n      sub\n      dup2\n      dup6\n      dup9\n      dup9\n      call\n      swap4\n      pop\n      pop\n      pop\n      pop\n      iszero\n      dup1\n      iszero\n      tag_23\n      jumpi\n      returndatasize\n      0x00\n      dup1\n      returndatacopy\n      revert(0x00, returndatasize)\n    tag_23:\n      pop\n        /* \"contracts/bank_account/BankAccount.sol\":1042:1086  LogDepositeMade(msg.sender , withdrawAmount) */\n      0x3e6eab4ac1d5e706b8c4c295ec0fd5a4ab9f90e15014250d73f946d7625ef64e\n        /* \"contracts/bank_account/BankAccount.sol\":1058:1068  msg.sender */\n      caller\n        /* \"contracts/bank_account/BankAccount.sol\":1071:1085  withdrawAmount */\n      dup4\n        /* \"contracts/bank_account/BankAccount.sol\":1042:1086  LogDepositeMade(msg.sender , withdrawAmount) */\n      mload(0x40)\n      dup1\n      dup4\n      0xffffffffffffffffffffffffffffffffffffffff\n      and\n      dup2\n      mstore\n      0x20\n      add\n      dup3\n      dup2\n      mstore\n      0x20\n      add\n      swap3\n      pop\n      pop\n      pop\n      mload(0x40)\n      dup1\n      swap2\n      sub\n      swap1\n      log1\n        /* \"contracts/bank_account/BankAccount.sol\":1111:1120  _balances */\n      0x00\n        /* \"contracts/bank_account/BankAccount.sol\":1111:1132  _balances[msg.sender] */\n      dup1\n        /* \"contracts/bank_account/BankAccount.sol\":1121:1131  msg.sender */\n      caller\n        /* \"contracts/bank_account/BankAccount.sol\":1111:1132  _balances[msg.sender] */\n      0xffffffffffffffffffffffffffffffffffffffff\n      and\n      0xffffffffffffffffffffffffffffffffffffffff\n      and\n      dup2\n      mstore\n      0x20\n      add\n      swap1\n      dup2\n      mstore\n      0x20\n      add\n      0x00\n      keccak256\n      sload\n        /* \"contracts/bank_account/BankAccount.sol\":1104:1132  return _balances[msg.sender] */\n      swap1\n      pop\n        /* \"contracts/bank_account/BankAccount.sol\":669:1144  function withdraw (uint withdrawAmount) public  returns (uint)... */\n      swap2\n      swap1\n      pop\n      jump\t// out\n        /* \"contracts/bank_account/BankAccount.sol\":1154:1265  function viewBalance() public view returns (uint)... */\n    tag_12:\n        /* \"contracts/bank_account/BankAccount.sol\":1198:1202  uint */\n      0x00\n        /* \"contracts/bank_account/BankAccount.sol\":1233:1242  _balances */\n      dup1\n        /* \"contracts/bank_account/BankAccount.sol\":1233:1254  _balances[msg.sender] */\n      0x00\n        /* \"contracts/bank_account/BankAccount.sol\":1243:1253  msg.sender */\n      caller\n        /* \"contracts/bank_account/BankAccount.sol\":1233:1254  _balances[msg.sender] */\n      0xffffffffffffffffffffffffffffffffffffffff\n      and\n      0xffffffffffffffffffffffffffffffffffffffff\n      and\n      dup2\n      mstore\n      0x20\n      add\n      swap1\n      dup2\n      mstore\n      0x20\n      add\n      0x00\n      keccak256\n      sload\n        /* \"contracts/bank_account/BankAccount.sol\":1226:1254  return _balances[msg.sender] */\n      swap1\n      pop\n        /* \"contracts/bank_account/BankAccount.sol\":1154:1265  function viewBalance() public view returns (uint)... */\n      swap1\n      jump\t// out\n        /* \"contracts/bank_account/BankAccount.sol\":134:154  address public owner */\n    tag_15:\n      0x01\n      0x00\n      swap1\n      sload\n      swap1\n      0x0100\n      exp\n      swap1\n      div\n      0xffffffffffffffffffffffffffffffffffffffff\n      and\n      dup2\n      jump\t// out\n        /* \"contracts/bank_account/BankAccount.sol\":345:658  function deposite() public payable  returns (uint)... */\n    tag_17:\n        /* \"contracts/bank_account/BankAccount.sol\":390:394  uint */\n      0x00\n        /* \"contracts/bank_account/BankAccount.sol\":463:472  _balances */\n      dup1\n        /* \"contracts/bank_account/BankAccount.sol\":463:484  _balances[msg.sender] */\n      0x00\n        /* \"contracts/bank_account/BankAccount.sol\":473:483  msg.sender */\n      caller\n        /* \"contracts/bank_account/BankAccount.sol\":463:484  _balances[msg.sender] */\n      0xffffffffffffffffffffffffffffffffffffffff\n      and\n      0xffffffffffffffffffffffffffffffffffffffff\n      and\n      dup2\n      mstore\n      0x20\n      add\n      swap1\n      dup2\n      mstore\n      0x20\n      add\n      0x00\n      keccak256\n      sload\n        /* \"contracts/bank_account/BankAccount.sol\":449:458  msg.value */\n      callvalue\n        /* \"contracts/bank_account/BankAccount.sol\":425:434  _balances */\n      0x00\n        /* \"contracts/bank_account/BankAccount.sol\":425:446  _balances[msg.sender] */\n      dup1\n        /* \"contracts/bank_account/BankAccount.sol\":435:445  msg.sender */\n      caller\n        /* \"contracts/bank_account/BankAccount.sol\":425:446  _balances[msg.sender] */\n      0xffffffffffffffffffffffffffffffffffffffff\n      and\n      0xffffffffffffffffffffffffffffffffffffffff\n      and\n      dup2\n      mstore\n      0x20\n      add\n      swap1\n      dup2\n      mstore\n      0x20\n      add\n      0x00\n      keccak256\n      sload\n        /* \"contracts/bank_account/BankAccount.sol\":425:458  _balances[msg.sender] + msg.value */\n      add\n        /* \"contracts/bank_account/BankAccount.sol\":424:484  (_balances[msg.sender] + msg.value) >  _balances[msg.sender] */\n      gt\n        /* \"contracts/bank_account/BankAccount.sol\":424:510  (_balances[msg.sender] + msg.value) >  _balances[msg.sender] && msg.sender!=address(0) */\n      dup1\n      iszero\n      tag_26\n      jumpi\n      pop\n        /* \"contracts/bank_account/BankAccount.sol\":508:509  0 */\n      0x00\n        /* \"contracts/bank_account/BankAccount.sol\":488:510  msg.sender!=address(0) */\n      0xffffffffffffffffffffffffffffffffffffffff\n      and\n        /* \"contracts/bank_account/BankAccount.sol\":488:498  msg.sender */\n      caller\n        /* \"contracts/bank_account/BankAccount.sol\":488:510  msg.sender!=address(0) */\n      0xffffffffffffffffffffffffffffffffffffffff\n      and\n      eq\n      iszero\n        /* \"contracts/bank_account/BankAccount.sol\":424:510  (_balances[msg.sender] + msg.value) >  _balances[msg.sender] && msg.sender!=address(0) */\n    tag_26:\n        /* \"contracts/bank_account/BankAccount.sol\":415:511  require ((_balances[msg.sender] + msg.value) >  _balances[msg.sender] && msg.sender!=address(0)) */\n      tag_27\n      jumpi\n      0x00\n      dup1\n      revert\n    tag_27:\n        /* \"contracts/bank_account/BankAccount.sol\":546:555  msg.value */\n      callvalue\n        /* \"contracts/bank_account/BankAccount.sol\":521:530  _balances */\n      0x00\n        /* \"contracts/bank_account/BankAccount.sol\":521:542  _balances[msg.sender] */\n      dup1\n        /* \"contracts/bank_account/BankAccount.sol\":531:541  msg.sender */\n      caller\n        /* \"contracts/bank_account/BankAccount.sol\":521:542  _balances[msg.sender] */\n      0xffffffffffffffffffffffffffffffffffffffff\n      and\n      0xffffffffffffffffffffffffffffffffffffffff\n      and\n      dup2\n      mstore\n      0x20\n      add\n      swap1\n      dup2\n      mstore\n      0x20\n      add\n      0x00\n      keccak256\n      0x00\n        /* \"contracts/bank_account/BankAccount.sol\":521:555  _balances[msg.sender] += msg.value */\n      dup3\n      dup3\n      sload\n      add\n      swap3\n      pop\n      pop\n      dup2\n      swap1\n      sstore\n      pop\n        /* \"contracts/bank_account/BankAccount.sol\":570:609  LogDepositeMade(msg.sender , msg.value) */\n      0x3e6eab4ac1d5e706b8c4c295ec0fd5a4ab9f90e15014250d73f946d7625ef64e\n        /* \"contracts/bank_account/BankAccount.sol\":586:596  msg.sender */\n      caller\n        /* \"contracts/bank_account/BankAccount.sol\":599:608  msg.value */\n      callvalue\n        /* \"contracts/bank_account/BankAccount.sol\":570:609  LogDepositeMade(msg.sender , msg.value) */\n      mload(0x40)\n      dup1\n      dup4\n      0xffffffffffffffffffffffffffffffffffffffff\n      and\n      dup2\n      mstore\n      0x20\n      add\n      dup3\n      dup2\n      mstore\n      0x20\n      add\n      swap3\n      pop\n      pop\n      pop\n      mload(0x40)\n      dup1\n      swap2\n      sub\n      swap1\n      log1\n        /* \"contracts/bank_account/BankAccount.sol\":626:635  _balances */\n      0x00\n        /* \"contracts/bank_account/BankAccount.sol\":626:647  _balances[msg.sender] */\n      dup1\n        /* \"contracts/bank_account/BankAccount.sol\":636:646  msg.sender */\n      caller\n        /* \"contracts/bank_account/BankAccount.sol\":626:647  _balances[msg.sender] */\n      0xffffffffffffffffffffffffffffffffffffffff\n      and\n      0xffffffffffffffffffffffffffffffffffffffff\n      and\n      dup2\n      mstore\n      0x20\n      add\n      swap1\n      dup2\n      mstore\n      0x20\n      add\n      0x00\n      keccak256\n      sload\n        /* \"contracts/bank_account/BankAccount.sol\":619:647  return _balances[msg.sender] */\n      swap1\n      pop\n        /* \"contracts/bank_account/BankAccount.sol\":345:658  function deposite() public payable  returns (uint)... */\n      swap1\n      jump\t// out\n\n    auxdata: 0xa264697066735822122042b133ae12cf8789081d879662502597f071f4d0f521270fcc7cf70a891b578164736f6c634300060c0033\n}\n",
				"bytecode": {
					"linkReferences": {},
					"object": "608060405234801561001057600080fd5b5033600160006101000a81548173ffffffffffffffffffffffffffffffffffffffff021916908373ffffffffffffffffffffffffffffffffffffffff1602179055507f3e6eab4ac1d5e706b8c4c295ec0fd5a4ab9f90e15014250d73f946d7625ef64e336103e8604051808373ffffffffffffffffffffffffffffffffffffffff1681526020018281526020019250505060405180910390a1610569806100b86000396000f3fe60806040526004361061003f5760003560e01c80632e1a7d4d146100445780633ff1e05b146100935780638da5cb5b146100be578063a50ec326146100ff575b600080fd5b34801561005057600080fd5b5061007d6004803603602081101561006757600080fd5b810190808035906020019092919050505061011d565b6040518082815260200191505060405180910390f35b34801561009f57600080fd5b506100a861031d565b6040518082815260200191505060405180910390f35b3480156100ca57600080fd5b506100d3610363565b604051808273ffffffffffffffffffffffffffffffffffffffff16815260200191505060405180910390f35b610107610389565b6040518082815260200191505060405180910390f35b6000816000803373ffffffffffffffffffffffffffffffffffffffff1673ffffffffffffffffffffffffffffffffffffffff16815260200190815260200160002054101561016a57600080fd5b600073ffffffffffffffffffffffffffffffffffffffff163373ffffffffffffffffffffffffffffffffffffffff1614156101a457600080fd5b60008060003373ffffffffffffffffffffffffffffffffffffffff1673ffffffffffffffffffffffffffffffffffffffff16815260200190815260200160002054116101ef57600080fd5b816000803373ffffffffffffffffffffffffffffffffffffffff1673ffffffffffffffffffffffffffffffffffffffff168152602001908152602001600020600082825403925050819055503373ffffffffffffffffffffffffffffffffffffffff166108fc839081150290604051600060405180830381858888f19350505050158015610281573d6000803e3d6000fd5b507f3e6eab4ac1d5e706b8c4c295ec0fd5a4ab9f90e15014250d73f946d7625ef64e3383604051808373ffffffffffffffffffffffffffffffffffffffff1681526020018281526020019250505060405180910390a16000803373ffffffffffffffffffffffffffffffffffffffff1673ffffffffffffffffffffffffffffffffffffffff168152602001908152602001600020549050919050565b60008060003373ffffffffffffffffffffffffffffffffffffffff1673ffffffffffffffffffffffffffffffffffffffff16815260200190815260200160002054905090565b600160009054906101000a900473ffffffffffffffffffffffffffffffffffffffff1681565b60008060003373ffffffffffffffffffffffffffffffffffffffff1673ffffffffffffffffffffffffffffffffffffffff16815260200190815260200160002054346000803373ffffffffffffffffffffffffffffffffffffffff1673ffffffffffffffffffffffffffffffffffffffff16815260200190815260200160002054011180156104455750600073ffffffffffffffffffffffffffffffffffffffff163373ffffffffffffffffffffffffffffffffffffffff1614155b61044e57600080fd5b346000803373ffffffffffffffffffffffffffffffffffffffff1673ffffffffffffffffffffffffffffffffffffffff168152602001908152602001600020600082825401925050819055507f3e6eab4ac1d5e706b8c4c295ec0fd5a4ab9f90e15014250d73f946d7625ef64e3334604051808373ffffffffffffffffffffffffffffffffffffffff1681526020018281526020019250505060405180910390a16000803373ffffffffffffffffffffffffffffffffffffffff1673ffffffffffffffffffffffffffffffffffffffff1681526020019081526020016000205490509056fea264697066735822122042b133ae12cf8789081d879662502597f071f4d0f521270fcc7cf70a891b578164736f6c634300060c0033",
					"opcodes": "PUSH1 0x80 PUSH1 0x40 MSTORE CALLVALUE DUP1 ISZERO PUSH2 0x10 JUMPI PUSH1 0x0 DUP1 REVERT JUMPDEST POP CALLER PUSH1 0x1 PUSH1 0x0 PUSH2 0x100 EXP DUP2 SLOAD DUP2 PUSH20 0xFFFFFFFFFFFFFFFFFFFFFFFFFFFFFFFFFFFFFFFF MUL NOT AND SWAP1 DUP4 PUSH20 0xFFFFFFFFFFFFFFFFFFFFFFFFFFFFFFFFFFFFFFFF AND MUL OR SWAP1 SSTORE POP PUSH32 0x3E6EAB4AC1D5E706B8C4C295EC0FD5A4AB9F90E15014250D73F946D7625EF64E CALLER PUSH2 0x3E8 PUSH1 0x40 MLOAD DUP1 DUP4 PUSH20 0xFFFFFFFFFFFFFFFFFFFFFFFFFFFFFFFFFFFFFFFF AND DUP2 MSTORE PUSH1 0x20 ADD DUP3 DUP2 MSTORE PUSH1 0x20 ADD SWAP3 POP POP POP PUSH1 0x40 MLOAD DUP1 SWAP2 SUB SWAP1 LOG1 PUSH2 0x569 DUP1 PUSH2 0xB8 PUSH1 0x0 CODECOPY PUSH1 0x0 RETURN INVALID PUSH1 0x80 PUSH1 0x40 MSTORE PUSH1 0x4 CALLDATASIZE LT PUSH2 0x3F JUMPI PUSH1 0x0 CALLDATALOAD PUSH1 0xE0 SHR DUP1 PUSH4 0x2E1A7D4D EQ PUSH2 0x44 JUMPI DUP1 PUSH4 0x3FF1E05B EQ PUSH2 0x93 JUMPI DUP1 PUSH4 0x8DA5CB5B EQ PUSH2 0xBE JUMPI DUP1 PUSH4 0xA50EC326 EQ PUSH2 0xFF JUMPI JUMPDEST PUSH1 0x0 DUP1 REVERT JUMPDEST CALLVALUE DUP1 ISZERO PUSH2 0x50 JUMPI PUSH1 0x0 DUP1 REVERT JUMPDEST POP PUSH2 0x7D PUSH1 0x4 DUP1 CALLDATASIZE SUB PUSH1 0x20 DUP2 LT ISZERO PUSH2 0x67 JUMPI PUSH1 0x0 DUP1 REVERT JUMPDEST DUP2 ADD SWAP1 DUP1 DUP1 CALLDATALOAD SWAP1 PUSH1 0x20 ADD SWAP1 SWAP3 SWAP2 SWAP1 POP POP POP PUSH2 0x11D JUMP JUMPDEST PUSH1 0x40 MLOAD DUP1 DUP3 DUP2 MSTORE PUSH1 0x20 ADD SWAP2 POP POP PUSH1 0x40 MLOAD DUP1 SWAP2 SUB SWAP1 RETURN JUMPDEST CALLVALUE DUP1 ISZERO PUSH2 0x9F JUMPI PUSH1 0x0 DUP1 REVERT JUMPDEST POP PUSH2 0xA8 PUSH2 0x31D JUMP JUMPDEST PUSH1 0x40 MLOAD DUP1 DUP3 DUP2 MSTORE PUSH1 0x20 ADD SWAP2 POP POP PUSH1 0x40 MLOAD DUP1 SWAP2 SUB SWAP1 RETURN JUMPDEST CALLVALUE DUP1 ISZERO PUSH2 0xCA JUMPI PUSH1 0x0 DUP1 REVERT JUMPDEST POP PUSH2 0xD3 PUSH2 0x363 JUMP JUMPDEST PUSH1 0x40 MLOAD DUP1 DUP3 PUSH20 0xFFFFFFFFFFFFFFFFFFFFFFFFFFFFFFFFFFFFFFFF AND DUP2 MSTORE PUSH1 0x20 ADD SWAP2 POP POP PUSH1 0x40 MLOAD DUP1 SWAP2 SUB SWAP1 RETURN JUMPDEST PUSH2 0x107 PUSH2 0x389 JUMP JUMPDEST PUSH1 0x40 MLOAD DUP1 DUP3 DUP2 MSTORE PUSH1 0x20 ADD SWAP2 POP POP PUSH1 0x40 MLOAD DUP1 SWAP2 SUB SWAP1 RETURN JUMPDEST PUSH1 0x0 DUP2 PUSH1 0x0 DUP1 CALLER PUSH20 0xFFFFFFFFFFFFFFFFFFFFFFFFFFFFFFFFFFFFFFFF AND PUSH20 0xFFFFFFFFFFFFFFFFFFFFFFFFFFFFFFFFFFFFFFFF AND DUP2 MSTORE PUSH1 0x20 ADD SWAP1 DUP2 MSTORE PUSH1 0x20 ADD PUSH1 0x0 KECCAK256 SLOAD LT ISZERO PUSH2 0x16A JUMPI PUSH1 0x0 DUP1 REVERT JUMPDEST PUSH1 0x0 PUSH20 0xFFFFFFFFFFFFFFFFFFFFFFFFFFFFFFFFFFFFFFFF AND CALLER PUSH20 0xFFFFFFFFFFFFFFFFFFFFFFFFFFFFFFFFFFFFFFFF AND EQ ISZERO PUSH2 0x1A4 JUMPI PUSH1 0x0 DUP1 REVERT JUMPDEST PUSH1 0x0 DUP1 PUSH1 0x0 CALLER PUSH20 0xFFFFFFFFFFFFFFFFFFFFFFFFFFFFFFFFFFFFFFFF AND PUSH20 0xFFFFFFFFFFFFFFFFFFFFFFFFFFFFFFFFFFFFFFFF AND DUP2 MSTORE PUSH1 0x20 ADD SWAP1 DUP2 MSTORE PUSH1 0x20 ADD PUSH1 0x0 KECCAK256 SLOAD GT PUSH2 0x1EF JUMPI PUSH1 0x0 DUP1 REVERT JUMPDEST DUP2 PUSH1 0x0 DUP1 CALLER PUSH20 0xFFFFFFFFFFFFFFFFFFFFFFFFFFFFFFFFFFFFFFFF AND PUSH20 0xFFFFFFFFFFFFFFFFFFFFFFFFFFFFFFFFFFFFFFFF AND DUP2 MSTORE PUSH1 0x20 ADD SWAP1 DUP2 MSTORE PUSH1 0x20 ADD PUSH1 0x0 KECCAK256 PUSH1 0x0 DUP3 DUP3 SLOAD SUB SWAP3 POP POP DUP2 SWAP1 SSTORE POP CALLER PUSH20 0xFFFFFFFFFFFFFFFFFFFFFFFFFFFFFFFFFFFFFFFF AND PUSH2 0x8FC DUP4 SWAP1 DUP2 ISZERO MUL SWAP1 PUSH1 0x40 MLOAD PUSH1 0x0 PUSH1 0x40 MLOAD DUP1 DUP4 SUB DUP2 DUP6 DUP9 DUP9 CALL SWAP4 POP POP POP POP ISZERO DUP1 ISZERO PUSH2 0x281 JUMPI RETURNDATASIZE PUSH1 0x0 DUP1 RETURNDATACOPY RETURNDATASIZE PUSH1 0x0 REVERT JUMPDEST POP PUSH32 0x3E6EAB4AC1D5E706B8C4C295EC0FD5A4AB9F90E15014250D73F946D7625EF64E CALLER DUP4 PUSH1 0x40 MLOAD DUP1 DUP4 PUSH20 0xFFFFFFFFFFFFFFFFFFFFFFFFFFFFFFFFFFFFFFFF AND DUP2 MSTORE PUSH1 0x20 ADD DUP3 DUP2 MSTORE PUSH1 0x20 ADD SWAP3 POP POP POP PUSH1 0x40 MLOAD DUP1 SWAP2 SUB SWAP1 LOG1 PUSH1 0x0 DUP1 CALLER PUSH20 0xFFFFFFFFFFFFFFFFFFFFFFFFFFFFFFFFFFFFFFFF AND PUSH20 0xFFFFFFFFFFFFFFFFFFFFFFFFFFFFFFFFFFFFFFFF AND DUP2 MSTORE PUSH1 0x20 ADD SWAP1 DUP2 MSTORE PUSH1 0x20 ADD PUSH1 0x0 KECCAK256 SLOAD SWAP1 POP SWAP2 SWAP1 POP JUMP JUMPDEST PUSH1 0x0 DUP1 PUSH1 0x0 CALLER PUSH20 0xFFFFFFFFFFFFFFFFFFFFFFFFFFFFFFFFFFFFFFFF AND PUSH20 0xFFFFFFFFFFFFFFFFFFFFFFFFFFFFFFFFFFFFFFFF AND DUP2 MSTORE PUSH1 0x20 ADD SWAP1 DUP2 MSTORE PUSH1 0x20 ADD PUSH1 0x0 KECCAK256 SLOAD SWAP1 POP SWAP1 JUMP JUMPDEST PUSH1 0x1 PUSH1 0x0 SWAP1 SLOAD SWAP1 PUSH2 0x100 EXP SWAP1 DIV PUSH20 0xFFFFFFFFFFFFFFFFFFFFFFFFFFFFFFFFFFFFFFFF AND DUP2 JUMP JUMPDEST PUSH1 0x0 DUP1 PUSH1 0x0 CALLER PUSH20 0xFFFFFFFFFFFFFFFFFFFFFFFFFFFFFFFFFFFFFFFF AND PUSH20 0xFFFFFFFFFFFFFFFFFFFFFFFFFFFFFFFFFFFFFFFF AND DUP2 MSTORE PUSH1 0x20 ADD SWAP1 DUP2 MSTORE PUSH1 0x20 ADD PUSH1 0x0 KECCAK256 SLOAD CALLVALUE PUSH1 0x0 DUP1 CALLER PUSH20 0xFFFFFFFFFFFFFFFFFFFFFFFFFFFFFFFFFFFFFFFF AND PUSH20 0xFFFFFFFFFFFFFFFFFFFFFFFFFFFFFFFFFFFFFFFF AND DUP2 MSTORE PUSH1 0x20 ADD SWAP1 DUP2 MSTORE PUSH1 0x20 ADD PUSH1 0x0 KECCAK256 SLOAD ADD GT DUP1 ISZERO PUSH2 0x445 JUMPI POP PUSH1 0x0 PUSH20 0xFFFFFFFFFFFFFFFFFFFFFFFFFFFFFFFFFFFFFFFF AND CALLER PUSH20 0xFFFFFFFFFFFFFFFFFFFFFFFFFFFFFFFFFFFFFFFF AND EQ ISZERO JUMPDEST PUSH2 0x44E JUMPI PUSH1 0x0 DUP1 REVERT JUMPDEST CALLVALUE PUSH1 0x0 DUP1 CALLER PUSH20 0xFFFFFFFFFFFFFFFFFFFFFFFFFFFFFFFFFFFFFFFF AND PUSH20 0xFFFFFFFFFFFFFFFFFFFFFFFFFFFFFFFFFFFFFFFF AND DUP2 MSTORE PUSH1 0x20 ADD SWAP1 DUP2 MSTORE PUSH1 0x20 ADD PUSH1 0x0 KECCAK256 PUSH1 0x0 DUP3 DUP3 SLOAD ADD SWAP3 POP POP DUP2 SWAP1 SSTORE POP PUSH32 0x3E6EAB4AC1D5E706B8C4C295EC0FD5A4AB9F90E15014250D73F946D7625EF64E CALLER CALLVALUE PUSH1 0x40 MLOAD DUP1 DUP4 PUSH20 0xFFFFFFFFFFFFFFFFFFFFFFFFFFFFFFFFFFFFFFFF AND DUP2 MSTORE PUSH1 0x20 ADD DUP3 DUP2 MSTORE PUSH1 0x20 ADD SWAP3 POP POP POP PUSH1 0x40 MLOAD DUP1 SWAP2 SUB SWAP1 LOG1 PUSH1 0x0 DUP1 CALLER PUSH20 0xFFFFFFFFFFFFFFFFFFFFFFFFFFFFFFFFFFFFFFFF AND PUSH20 0xFFFFFFFFFFFFFFFFFFFFFFFFFFFFFFFFFFFFFFFF AND DUP2 MSTORE PUSH1 0x20 ADD SWAP1 DUP2 MSTORE PUSH1 0x20 ADD PUSH1 0x0 KECCAK256 SLOAD SWAP1 POP SWAP1 JUMP INVALID LOG2 PUSH5 0x6970667358 0x22 SLT KECCAK256 TIMESTAMP 0xB1 CALLER 0xAE SLT 0xCF DUP8 DUP10 ADDMOD SAR DUP8 SWAP7 PUSH3 0x502597 CREATE PUSH18 0xF4D0F521270FCC7CF70A891B578164736F6C PUSH4 0x4300060C STOP CALLER "
				},
				"gasEstimates": {
					"creation": {
						"codeDepositCost": "277000",
						"executionCost": "22526",
						"totalCost": "299526"
					},
					"external": {
						"deposite()": "25238",
						"owner()": "1069",
						"viewBalance()": "1102",
						"withdraw(uint256)": "infinite"
					}
				},
				"methodIdentifiers": {
					"deposite()": "a50ec326",
					"owner()": "8da5cb5b",
					"viewBalance()": "3ff1e05b",
					"withdraw(uint256)": "2e1a7d4d"
				}
			},
			"storageLayout": {
				"storage": [
					{
						"astId": 5,
						"contract": "contracts/bank_account/BankAccount.sol:MyBank",
						"label": "_balances",
						"offset": 0,
						"slot": "0",
						"type": "t_mapping(t_address,t_uint256)"
					},
					{
						"astId": 7,
						"contract": "contracts/bank_account/BankAccount.sol:MyBank",
						"label": "owner",
						"offset": 0,
						"slot": "1",
						"type": "t_address"
					}
				],
				"types": {
					"t_address": {
						"encoding": "inplace",
						"label": "address",
						"numberOfBytes": "20"
					},
					"t_mapping(t_address,t_uint256)": {
						"encoding": "mapping",
						"key": "t_address",
						"label": "mapping(address => uint256)",
						"numberOfBytes": "32",
						"value": "t_uint256"
					},
					"t_uint256": {
						"encoding": "inplace",
						"label": "uint256",
						"numberOfBytes": "32"
					}
				}
			},
			"userdoc": {
				"kind": "user",
				"methods": {},
				"version": 1
			}
		}
	}
}